:10000000007C00200D060000FD0500000106000038
:1000100000000000000000000000000000000000E0
:1000200000000000000000000000000005060000C5
:10003000000000000000000009060000AD070000FD
:1000400010B5064C2378002B07D1054B002B02D0AE
:10005000044800E000BF0123237010BD54000020BD
:10006000000000003C1D0000044B10B5002B03D025
:100070000349044800E000BF10BDC0460000000076
:10008000580000203C1D000010B50C4A13880133B5
:100090009BB21380108880B2094901F0B9FC89B283
:1000A000002909D1054A138801339BB21380054A00
:1000B0009C230131FF31D15010BDC046700000209B
:1000C000881300000044004110B5C3699B07FCD4AD
:1000D00003680224A3430360C369DB07FCD40368FD
:1000E0000124234303600368DB07FCD4C369DB07F7
:1000F000FCD4C3699B07F9D4084B1A430260C36957
:100100005B07FCD4C0239B0243608181C3699B07CA
:10011000FCD4036802221343036010BD04000040B6
:10012000037EDB07FCD589B201857047037E5B0740
:10013000FCD5438BDB0705D4438B9B0702D4438B51
:100140005B0702D5024B01221A70008DC0B27047C6
:1001500072000020F8B5040003689A8B120707D4D8
:100160000822FF329B5CDB062FD500F063FB2CE0FE
:1001700008229A8378329A728021490011205854BB
:1001800040260621FF315E5482256D005A55104AE3
:100190005168104F3940C0208005014351605169BA
:1001A0003940084350610C4911600C491161516894
:1001B0000B48084080218902014351605168890B36
:1001C000890351605E55002323712079F8BDC04634
:1001D00098010020FFFFFF8F9800002018010020E9
:1001E000FF3F00F00160002303714371034B836004
:1001F0000B78022213430B707047C0465501000074
:1002000010B5394AD36920210B43D361374B3831BC
:100210005A5C012422435A543C22985C4939884351
:100220009854985C0621084398545920195C21433E
:100230001954995C4A3801409954995C60200143F3
:1002400099542B4B2B4A5A801A0053785BB2002BDF
:10025000FBDB294A137801210B4313709378DB07EA
:10026000FCD4264B1B689B03DB0E1F2B36D0224988
:100270000A8D9B012248024013430B851F4B1B68CC
:100280005B02DB0E1F2B2BD01B490A8D1F208243E4
:1002900013430B85194B1A689201520F072A21D07C
:1002A000154B198D1203174801400A431A85197816
:1002B0007F220A401A701A7804210A431A701248E1
:1002C00058621A890C218A431A811A890B398A4388
:1002D0001A818022002101F0AAFB10BD1A3BC6E75B
:1002E000023BD1E7043ADBE7000400400044004150
:1002F000000C0040064000000050004124608000D7
:100300003FF8FFFFFF8FFFFF98010020F0B5C646C2
:1003100000B5050016001C0098465A01214B9B1899
:1003200010335B685B005B0F033301229A40B242DB
:100330002BD862011B4B9B1858698022120602437E
:100340005A616201174B9B181A0019615B69B1046D
:10035000890C9B0B9B030B435361536912490B4060
:100360005361083464012C190223E3716279823BE2
:10037000134363714046083040012818C3799B0736
:10038000FCD5300004BC9046F0BD27007B1E9F4189
:10039000BF01064BFF183200380001F03FFB390067
:1003A000CFE7C04698010020FF3F00F01801002071
:1003B00070B505000E0014001B4B1B78002B14D1E8
:1003C0001A4B1B4A1A645A6C920B92035A645A6C69
:1003D00018490A405A64A2225200835C40210B4310
:1003E0008354114B443AFF3A1A704823FF33EB5CB5
:1003F0000020DB0716D50D4B5B6C9B049B0CA342C6
:1004000003D20A4B5C6CA404A40C220008493000FF
:1004100001F004FB4823FF330122EA54024B00227F
:100420001A70200070BDC0467300002098010020A3
:10043000D8000020FF3F00F0002906D10622FF323D
:10044000835C10210B43835470470622FF32835C88
:1004500020210B438354F7E70A4A53699B0B9B0304
:1004600053610823FF330222C2540622FF32815C0B
:10047000883BFF3B0B4383540822FF32835C9B077E
:10048000FCD570479801002080235B421943C9B214
:100490008172704770B5A0235B000322C254134BD6
:1004A0005A6C134C2240C02189050A435A644025E6
:1004B0004622FF3285540F4A1A6490225200302699
:1004C00086545A6B22401143596380219222520074
:1004D0008154094A1A63B022520085545A6F22404F
:1004E0005A67B2235B00C15470BDC046980100201A
:1004F000FFFFFF8FD800002058010020024A5378E8
:100500005BB2002BFBDB7047000C0040024910225D
:10051000CB681A42FCD070470008004070B52C4AE6
:1005200053681E218B431C390B435360294B2A4AC5
:100530009A829A8A0A439A8219000222CB681A4246
:10054000FCD0264C0123A360FFF7D8FF244B636047
:10055000FFF7D4FF8223DB016380FFF7CFFF1D4C41
:10056000A38C80229343A384FFF7D0FF1D4BE3624B
:10057000FFF7CCFFA38C1C4A1343A384FFF7C6FFED
:10058000A38C02221343A384220080214020D3683D
:100590001942FCD0D3681842F9D0FFF7B7FF0F4DCE
:1005A0000024AC60FFF7AAFF104B6B60FFF7A6FFBB
:1005B0000F4A104B53601048036A1B021B0AC021EC
:1005C00009060B43036294600723136070BDC046A5
:1005D00000400041000800400C060000000C0040F4
:1005E00001050100B805FF7D040A000000070300B3
:1005F00010E000E0E703000000ED00E00EBEFEE7C3
:100600000DBEFEE705BEFEE702BEFEE710B5164AC8
:10061000164B9A4215D0164A134B9A4211D01A0023
:10062000124B9A420DD20333124A9B1A9B08013394
:100630009B0000220C480E498C58845004329A4288
:10064000FAD10D4A0D4B9A420AD009D2111D03333B
:100650005B1A032083435B18002102C29A42FCD13B
:1006600000F00EF8FEE7C046000000205400002015
:10067000401D00000400002054000020A0030020C2
:1006800070B53E4A882380214900D1503C4B3D4AF9
:100690001360FF22043B13422DD13B4A3823D35C25
:1006A0005B060DD53823D35CDB0709D433486439A6
:1006B000802252004250354B013B002BFCD1F9E720
:1006C00072B62E4A982380214900D1508E3B2F4A82
:1006D000013A002AFCD1013B9BB2002BF7D12C4BF5
:1006E0000A221A80BFF34F8F2A4B2B4ADA60BFF3DE
:1006F0004F8FC046FDE7FFF711FF62B600F0ECFE3A
:1007000000F05AF804001D4B8022520088215A50F4
:100710009C201A50214D2988013129801A50204AE5
:10072000204B53601B48036A1B021B0AC0210906A9
:100730000B43036200239360073313601A4E0125B5
:100740002000A3689847002801D0174B1D7033780C
:10075000002B05D0002000F049FB00F0D9FBFCE79E
:10076000114B1B78002BEBD100F02AFF0028E7D0BB
:10077000012000F03BFB00F0CBFBFCE70044004114
:1007800004200000180200200004004048E8010096
:100790007600002000ED00E00400FA05740000205F
:1007A00010E000E0E70300007800002010B5FFF73C
:1007B0006BFC00F093FB10BD10B5054C054B23609E
:1007C000FFF71EFD21682000FFF70CFD200010BD83
:1007D0001C0200200050004170B5C0B005000C00A4
:1007E0001600080001F02BF9400002306B4618702B
:1007F00003236A4653702378002B17D07608012E06
:1008000016DD0122694602310134881C0B80013259
:100810002378002B02D00100B242F5DB5200002306
:1008200069462800FFF772FD40B070BD0122F5E770
:100830000122F3E7F0B583B0050004680823FF3315
:100840001022E254B84B1A78B84802705A78B84E61
:1008500032709978B74A11801188DF783F023943A6
:1008600011801979B44A118011885F793F023943A8
:1008700011809979B14A11801188DB791B020B43F1
:10088000138082235B004022E254337802781B02FB
:100890001343AB4A934200D11EE125DC8022520073
:1008A000934255D012DD81225200934200D172E171
:1008B00000DA6CE1FF32FF32934200D107E1A14A36
:1008C00093420CD12000FFF7C7FD3CE0812B00D103
:1008D000BFE0822B00D1C4E0802B00D1B1E0012128
:1008E0002000FFF7A9FD2EE090221201934200D1D3
:1008F00096E012DD944A934200D1B7E125DD934A98
:10090000934200D1B6E1924A9342E8D1894B1B88C9
:100910006B712000FFF7A0FD15E0D022D2009342BA
:100920001BD088221201934200D183E0A022D20082
:100930009342D4D12000FFF78FFD7E4B198889B2F6
:100940002868FFF7A1FD03B0F0BD824A9342C6D1EB
:1009500001212000FFF770FDF5E7764B1B881B0A8D
:10096000012B18D0734B1B881B0A022B22D0714B12
:100970001B881B0A032B4ED16E4B1B88FF22134092
:10098000012B38D0002B24D0022B3CD00121200099
:10099000FFF752FDD7E72868684B1B889BB21222ED
:1009A000122B02D8654B1A8892B200236A49FFF7CE
:1009B000ADFCC8E72868614B1B889BB24322432BE0
:1009C00002D85E4B1A8892B200236449FFF79EFC5E
:1009D000B9E7634B1B6801932868584B1B889BB28F
:1009E0000422042B02D8554B1A8892B2002301A985
:1009F000FFF78CFCA7E7514B1A88D2B228685949F7
:100A0000FFF7EAFE9FE74D4B1A88D2B22868564995
:100A1000FFF7E2FE97E701212000FFF70DFD92E7C7
:100A2000444B1B882B712000FFF716FD2000FFF7B9
:100A300031FD88E7291D286800230122FFF766FCA5
:100A400081E74A4900230B8028680222FFF75EFCF9
:100A500079E7464900230B8028680222FFF756FCFD
:100A600071E7424B00221A80334B1A8850210A400A
:100A70003F490A701A880F210A401A801B889BB2CE
:100A8000032B1FD83A4B1B78002B10D02A4B1B8806
:100A900008335B01E418A3799B06DB0F334A13800C
:100AA0002868002302223149FFF730FC4BE7224B34
:100AB0001B8808335B01E418A379DB06DB0F2B4AA4
:100AC0001380EDE701212000FFF7B6FC3BE7012191
:100AD0002000FFF7B1FC36E7174B1A8880210A4047
:100AE00023490A701A880F210A401A80114B1B886B
:100AF0009BB2002B46D1104B1B889BB2002B41D0E0
:100B00000D4B1B889BB2032B3CD8194B1B78002B39
:100B100030D0094B1B8808335B01E31820225A713F
:100B20002000FFF799FC0EE7980000207A000020D3
:100B300079000020820000207C0000207E00002040
:100B4000020300000103000021200000A121000099
:100B500021220000010B0000681A000000000020A4
:100B6000641A00007C1A0000881A0000800000202F
:100B70007B000020474B1B8808335B01E3181022E1
:100B80005A71CDE701212000FFF756FCDBE620007B
:100B9000FFF762FCD7E63F4B1A8880210A403E49A6
:100BA0000A701A880F210A401A803C4B1B889BB29E
:100BB000002B56D1374B1B889BB2002B51D0354BA5
:100BC0001B889BB2032B4CD8334B1B78002B25D0B2
:100BD000304B1B8808335B01E3189B799B0619D5C2
:100BE0002C4A138808335B01E318113119711388FB
:100BF00008335B01E318DB795B060BD513880833F8
:100C00005B01E3182031D971138808335B01E318C5
:100C100002221A712000FFF71FFC94E61D4B1B886F
:100C200008335B01E3189B79DB06F3D5194A138877
:100C300008335B01E31810211971138808335B0135
:100C4000E318DB799B06E5D5138808335B01E318CD
:100C50001031D971138808335B01E31801221A712E
:100C6000D8E701212000FFF7E7FB6CE62000FFF743
:100C7000F3FB68E628680A4B1B889BB20822082B06
:100C800002D8074B1A8892B200230649FFF73EFBB1
:100C900059E6C0467C0000207B0000208200002036
:100CA0007E0000204400002000B583B00190054B79
:100CB00018680123012201A9FFF728FB012003B0D6
:100CC00000BDC0461C02002010B582B06B46DC1D82
:100CD000044B186801222100FFF76AFB207802B05C
:100CE00010BDC0461C02002010B50748FFF732FABD
:100CF00003000020002B06D0034B1A684823FF3363
:100D0000D05CC007C00F10BD1C02002070B50500EC
:100D10000C00044B186801230A002900FFF7F6FABB
:100D2000200070BD1C02002070B504000D000848B2
:100D3000FFF710FA0023002801D1180070BD044B02
:100D400018682A002100FFF733FB0300F5E7C046CF
:100D50001C020020F8B505000E000B48FFF7FAF959
:100D600000280DD0002E0CD03400074F220029009F
:100D70003868FFF71DFB241A2D18002CF6D100E06F
:100D800000263000F8BDC0461C02002010B50C0043
:100D9000C368110020009847014B64221A8010BDDF
:100DA0009400002030B50C4B18600C4B1B68984227
:100DB00010D20B4A0B4B1D1C0B4C08494308D36146
:100DC0001580137DDB07FCD523689B00C0180B68DA
:100DD0008342F3D830BDC046880000203402002092
:100DE0000040004102A5FFFF3C020020012805D081
:100DF000002802D1054B064A1A607047034B054A8A
:100E00001A60054B01221A70F7E7C04684020020E1
:100E1000201B0000041B000084000020F0B585B0FA
:100E2000214B1B78002B37D0042908D002290FD082
:100E300004784E001CD004AB98190B3804E0046809
:100E40004E0004AB98190B3800250F22302708E01C
:100E50000488F5E737330370240901380135B542BA
:100E600006D213002340092BF4D83B430370F3E769
:100E700001AB30221A7048325A704A1C52000A21C3
:100E800099549E190331F17002320849086819001B
:100E9000FFF77CFF05B0F0BD044B1B680A000100A2
:100EA0001800FFF773FFF5E786000020840200209A
:100EB00080B500AF074B1B78002B09D172B6EFF35A
:100EC0000883054A1360036883F30888436818475A
:100ED000BD4680BD85000020880200200A4B1B888B
:100EE0009BB2002B04D0084A1388013B9BB21380AD
:100EF000064B1B889BB2002B04D0044A1388013B8D
:100F00009BB213807047C046940000208C000020E4
:100F1000F0B5DE4657464E464546E0B58BB000AFCD
:100F20000823F918D24B0A0031CB31C231CB31C280
:100F300011CB11C2CF4A93685B035B0F9B005958DA
:100F4000CD4B196093689BB2CC4803604B43CC49AE
:100F50000B60138BDB05DB0FCA4A1370CA4B0022F0
:100F60001A60CA4B7A321A707AE2C94B1B78002B8E
:100F700050D1C64B1B78532B53D0522B00D1BFE01E
:100F80004F2B00D1D4E0482B00D1D7E0572B00D114
:100F9000DAE06F2B00D1DDE0682B00D1EDE0772B9C
:100FA00000D102E1B74A1278002A02D1472B00D1C2
:100FB00013E1542B00D124E14E2B00D12BE1562B11
:100FC00000D137E1582B00D18EE1592B00D19BE1A4
:100FD0005A2B5AD1AF4B1A68AB4B1B68002A00D171
:100FE000EEE11E0094469C44E04600231D0030784C
:100FF000290000F007FB050001364346B342F6D155
:10100000A54B18680122A549FFF7C0FE2B00072257
:101010000F26DBE1A04B18680222A149FFF7B6FEBC
:10102000A7E7A04B1A68A04B1B689A421ED99F489D
:1010300001680131016001339B480360D31A954A6E
:10104000126893424CD29A4A13608F4B1868984E9C
:10105000326800F0E3FC336893490A68D2180A60EA
:1010600092490A68D2180A60924A13708E4A13682D
:10107000013B13608D4A1368013B13608D4B1B7855
:10108000844A11688B422ED3C046804B7A221A7054
:10109000804B00221A607E4B1B78002B00D0ABE106
:1010A000814A13680133136080490A6801320A607B
:1010B0007C4A1268934200D3D2E123681B78FF2B4D
:1010C000EED0232B00D150E71A00303A092A00D97C
:1010D00099E170490A681201303B13430B60DFE766
:1010E000734B1A60B1E7C91A674B18686A4B1B68E3
:1010F0009B6998470028C7D06F4B64221A80C3E7CA
:10110000604B1B78002B07D06C4B5F4A12689A42E9
:1011100002D85D4B6A4A1A605E4B19685A4B1868D0
:101120005D4B1B685B699847664B64221A80ACE78D
:10113000554B1B68574A12681A70A6E7524B1B683A
:10114000544A12681A80A0E74F4B1B68514A126834
:101150001A609AE74B4B1B78002B08D04A4B1B6850
:10116000043B594A934202D8474B4A4A1A60464BBD
:1011700018680121FFF752FE87E7424B1B78002BCE
:1011800009D0414B1B68043B4F4A934203D8414B63
:1011900000221A6004E03C4B1B681A883D4B1A6021
:1011A00002213C48FFF73AFE6FE7364B1B78002BD5
:1011B00009D0354B1B68043B434A934203D8354B57
:1011C00000221A6004E0304B1B681A68314B1A6029
:1011D00004213048FFF722FE57E72E4B1868FFF72F
:1011E00067FE3A4B1B6883F3088862B6384B1B785E
:1011F000002B00D149E7284B1B681B680620984745
:1012000043E7234B01221A70234B1868013224490B
:10121000FFF7BCFD39E71E4B1B78002B03D01C4B9E
:1012200000221A7031E71C4B186802221C49FFF794
:10123000ADFDF4E7184E012226493068FFF7A6FD00
:10124000032225493068FFF7A1FD012223493068B8
:10125000FFF79CFD0E2222493068FFF797FD2149D8
:10126000124B196030681722FFF790FD0DE7C0465A
:10127000981A0000004000413C0200203802002083
:10128000340200208500002080020020300200206F
:10129000860000208C02002084020020F81A000042
:1012A000CC1A000028020020740000202C0200202C
:1012B00090020020760000208C000020FFFFFF1F1E
:1012C0000050002094000020FBFFFF1F8802002038
:1012D00084000020D01A0000C81A0000D41A0000B0
:1012E000B81A0000D81A0000002A02D1674B18680B
:1012F00001E080208001FFF755FD654B186803224F
:101300006449FFF743FDC0E6604B1B68002B0AD120
:10131000614B1A68614B1A605D4B18680322604983
:10132000FFF734FDB1E6002A05D080239B015D4A1A
:1013300012689A4217D1554B1E68B608574B1B6866
:101340009C46554B1B689B46574A536880218B43EC
:101350005360002EE0D01000544B9A46544B9946EF
:10136000544B98460FE080208001FFF71BFDE2E719
:10137000002342460280027DD207FCD59A009344A6
:101380009444F61AC8D053460380037DDB07FCD58E
:101390004B461B68032BEBD9002E0FD000210023F6
:1013A0005A4665466D5855500133414A12689208B5
:1013B0009342DED20431B342F2D1DAE73300D8E708
:1013C00000231D001CE6D055013A09D33100194015
:1013D0001B09080030300929F5DD37310800F2E734
:1013E0002B4E082239003068FFF7D0FC306803220A
:1013F0003149FFF7CBFC48E6254B186801322F49ED
:10140000FFF7C4FC4CE61A00413A052A06D81F49EA
:101410000A681201373B13430B6041E61A00613A38
:10142000052A06D819490A681201573B13430B6075
:1014300036E62C2B05D0224A1370144B00221A607A
:101440002EE6124B144A1968116000221A6027E632
:1014500000231C4A13601C4A1C4911601C4A13607B
:101460000B4B1B681B694021184898470028EFD098
:10147000184B64221A80134B1860134B134A1A60DE
:10148000134B00221A60104C17E6C0468C02002055
:1014900084020020F01A000080020020900000204A
:1014A000F41A0000880000200040004144A5FFFF1E
:1014B0003C02002004A5FFFFFC1A0000001B0000F6
:1014C00030020020280200202C02002040020020D0
:1014D000740000208C00002010B51E4BD6215A5CF1
:1014E000012422435A54BB22985CC739884398543C
:1014F000985C032108439854D720195C2143195460
:10150000995CC83801409954995C30200143995442
:10151000114A136A80210B431362104B104A5A8000
:101520001A0053785BB2002BFBDBC42292030D49F7
:101530000D48FEF7C9FD00230C4A13700C4A1370C6
:101540000C4A13700C4A13700C4A13700C4A137037
:1015500010BDC0460044004100040040000C0040A3
:10156000194000002AF60000001C004294020020EE
:101570001E03002095020020980200201F03002077
:101580001C03002010B5C1B20248FEF7C9FD0120BE
:1015900010BDC046001C0042024B187E4007C00F21
:1015A0007047C046001C004210B5FFF7F5FF002849
:1015B000FBD00248FEF7BAFD10BDC046001C004239
:1015C00010B5FFF7E9FF0023002801D1180010BD76
:1015D000FFF7EAFF233843424341F7E770B50400C1
:1015E0000E1E06D045182078FFF7CCFF0134A54227
:1015F000F9D1300070BD10B50400FFF7D5FF2070A1
:10160000012010BD0B0A43405B000902024A985AB0
:10161000484080B27047C0463C1B0000F0B5DE4633
:1016200057464E464546E0B583B001908B464C4B3D
:1016300000221A70002918D14A4B01321A70484C06
:101640000025FFF7B1FF2378002B1CD1C0B243283F
:1016500003D071287CD01528F3D101239946424B41
:1016600098461C003F4B9A4662E03F4B19803D4B29
:1016700000221A700B005B06E1D00B0080337F3232
:1016800093439B46DBE7364B1D70FFF78DFFC0B2DF
:10169000334B1B78002BDAD0314B00221A7000201C
:1016A00057E02F4B00221A70002052E00420FFF771
:1016B00069FFFFF779FF2B4B00221A70012048E0E9
:1016C0003D78013B238001372800FFF75BFF00993D
:1016D0002800FFF797FF0090013E002E08D04346F8
:1016E0001B88002BECD152461578002DECD0E7E793
:1016F0000500000AC0B2FFF745FFE8B2FFF742FF5E
:10170000FFF752FF164B1B78002BCAD1FF2318405E
:1017100006280AD14B460133DBB2994680235B424F
:101720009C46E344019B803301935B46002BBDD074
:101730000120FFF727FF4846FFF724FF4B46D84319
:10174000C0B2FFF71FFF019F802600230093C6E76A
:10175000002003B03CBC90469946A246AB46F0BD83
:101760001C0300201D03002096020020F0B5D64681
:10177000474680B583B006000F1E2BD000240023FF
:101780000193194B9A46194B984608E0731C357023
:101790001E00802F18D00134A4B2A7421ED0FFF73C
:1017A00003FFC5B253461B78002B15D101992800C1
:1017B000FFF728FF019043461B88002BE6D10C4B16
:1017C0001B78002BE7D0E1E7084A1288013A074965
:1017D0000A80E0E7019101E001230193019803B041
:1017E0000CBC90469A46F0BD1C03002096020020D7
:1017F0001D030020F0B585B005003E4B00221A7095
:10180000002904D13C4B01321A7064260AE03B4B9C
:101810001980394B00221A70F7E7002C0ED1013ED7
:10182000002E65D04320FFF7ADFE354CFFF7B4FE28
:101830000028F2D1002CF2D0013CF7E701242D4E14
:1018400041E02C4B00221A7000204BE0022103A83B
:10185000FFF78CFF80212800FFF788FF0190254BC0
:101860001B78002B08D0234B1B78002B36D0214B44
:1018700000221A70002035E0FFF796FE0700FFF700
:1018800093FE1C4B1A78012AEDD03F02381880B223
:10189000019B834203D103AB1B78A34203D01820E2
:1018A000FFF770FEDFE7E34303AA5278DBB29A4208
:1018B000F5D10620FFF766FE0E4B1B78002BD6D124
:1018C0000134E4B28035FFF76FFE3378002BB8D1D6
:1018D000FF2318400128B9D0042805D0064B002268
:1018E0001A70012005B0F0BD0620FFF74BFEF5E7AA
:1018F0000020F7E71C0300201D03002096020020B3
:1019000000350C00002243088B4274D303098B423C
:101910005FD3030A8B4244D3030B8B4228D3030CBF
:101920008B420DD3FF22090212BA030C8B4202D361
:101930001212090265D0030B8B4219D300E0090A89
:10194000C30B8B4201D3CB03C01A5241830B8B4292
:1019500001D38B03C01A5241430B8B4201D34B037B
:10196000C01A5241030B8B4201D30B03C01A5241E0
:10197000C30A8B4201D3CB02C01A5241830A8B4265
:1019800001D38B02C01A5241430A8B4201D34B024E
:10199000C01A5241030A8B4201D30B02C01A5241B2
:1019A000CDD2C3098B4201D3CB01C01A5241830966
:1019B0008B4201D38B01C01A524143098B4201D3A0
:1019C0004B01C01A524103098B4201D30B01C01ACB
:1019D0005241C3088B4201D3CB00C01A5241830845
:1019E0008B4201D38B00C01A524143088B4201D372
:1019F0004B00C01A5241411A00D2014652411046D2
:101A00007047FFE701B5002000F006F802BDC046B0
:101A10000029F7D076E770477047C046002310B51D
:101A20009A4200D110BDCC5CC4540133F8E70300E6
:101A30001218934200D1704719700133F9E700235F
:101A4000C25C0133002AFBD1581E7047F8B5C0466E
:101A5000F8BC08BC9E467047F8B5C046F8BC08BC48
:101A60009E46704704030904120100020200004070
:101A700041234F0000020102000100004172647521
:101A8000696E6F204C4C430041726475696E6F2023
:101A90004D4B525A65726F000800000010000000A4
:101AA0002000000040000000800000000001000055
:101AB00000020000000400005B41726475696E6FF3
:101AC0003A58595A505D0000322E30000A0D00007D
:101AD0007600000020000000204D6172203230208E
:101AE000323032332031313A33313A35300A0D0059
:101AF000580A0D00590A0D005A000000230A0D0073
:101B00003E00000085150000A91500009915000091
:101B1000DD150000F71500001D160000F517000088
:101B2000A90C0000C90C0000E90C00000D0D00001C
:101B3000290D00000D0D0000550D000000002110C2
:101B4000422063308440A550C660E7700881299127
:101B50004AA16BB18CC1ADD1CEE1EFF131121002CF
:101B600073325222B5529442F772D6623993188377
:101B70007BB35AA3BDD39CC3FFF3DEE3622443349B
:101B800020040114E664C774A44485546AA54BB5C7
:101B900028850995EEE5CFF5ACC58DD5533672266F
:101BA00011163006D776F6669556B4465BB77AA717
:101BB00019973887DFF7FEE79DD7BCC7C448E558BB
:101BC0008668A7784008611802282338CCC9EDD967
:101BD0008EE9AFF9488969990AA92BB9F55AD44A0F
:101BE000B77A966A711A500A333A122AFDDBDCCBB7
:101BF000BFFB9EEB799B588B3BBB1AABA66C877CDB
:101C0000E44CC55C222C033C600C411CAEED8FFD06
:101C1000ECCDCDDD2AAD0BBD688D499D977EB66EAE
:101C2000D55EF44E133E322E511E700E9FFFBEEF56
:101C3000DDDFFCCF1BBF3AAF599F788F8891A98118
:101C4000CAB1EBA10CD12DC14EF16FE18010A10002
:101C5000C230E3200450254046706760B9839893F2
:101C6000FBA3DAB33DC31CD37FE35EF3B102901252
:101C7000F322D2323542145277625672EAB5CBA5BE
:101C8000A89589856EF54FE52CD50DC5E234C324A2
:101C9000A01481046674476424540544DBA7FAB792
:101CA0009987B8975FE77EF71DC73CD7D326F236F2
:101CB0009106B01657667676154634564CD96DC9DE
:101CC0000EF92FE9C899E9898AB9ABA94458654842
:101CD00006782768C018E1088238A3287DCB5CDB32
:101CE0003FEB1EFBF98BD89BBBAB9ABB754A545A92
:101CF000376A167AF10AD01AB32A923A2EFD0FEDFE
:101D00006CDD4DCDAABD8BADE89DC98D267C076CE1
:101D1000645C454CA23C832CE01CC10C1FEF3EFFD1
:101D20005DCF7CDF9BAFBABFD98FF89F176E367E31
:101D3000554E745E932EB23ED10EF01E0000000090
:101D4000090243000201008032090400000102027E
:101D500000000524001001042402000524060001EF
:101D60000524010001070583030800FF09040100A1
:101D7000020A000000070581024000000705020278
:101D80004000000000C201000000080069000000DF
:041D9000410000000E
:040000030000060DE6
:00000001FF
